{
  "_format": "hh-sol-artifact-1",
  "contractName": "AnonymousMembership",
  "sourceName": "contracts/AnonymousMembership.sol",
  "abi": [
    {
      "inputs": [],
      "stateMutability": "nonpayable",
      "type": "constructor"
    },
    {
      "anonymous": false,
      "inputs": [
        {
          "indexed": true,
          "internalType": "uint32",
          "name": "memberId",
          "type": "uint32"
        }
      ],
      "name": "MemberDeactivated",
      "type": "event"
    },
    {
      "anonymous": false,
      "inputs": [
        {
          "indexed": true,
          "internalType": "uint32",
          "name": "memberId",
          "type": "uint32"
        },
        {
          "indexed": false,
          "internalType": "uint32",
          "name": "newLevel",
          "type": "uint32"
        }
      ],
      "name": "MemberLevelUpdated",
      "type": "event"
    },
    {
      "anonymous": false,
      "inputs": [
        {
          "indexed": true,
          "internalType": "uint32",
          "name": "memberId",
          "type": "uint32"
        },
        {
          "indexed": true,
          "internalType": "address",
          "name": "wallet",
          "type": "address"
        },
        {
          "indexed": false,
          "internalType": "bool",
          "name": "isAnonymous",
          "type": "bool"
        }
      ],
      "name": "MemberRegistered",
      "type": "event"
    },
    {
      "anonymous": false,
      "inputs": [
        {
          "indexed": true,
          "internalType": "uint32",
          "name": "levelId",
          "type": "uint32"
        },
        {
          "indexed": false,
          "internalType": "string",
          "name": "name",
          "type": "string"
        }
      ],
      "name": "MembershipLevelCreated",
      "type": "event"
    },
    {
      "anonymous": false,
      "inputs": [
        {
          "indexed": true,
          "internalType": "uint32",
          "name": "memberId",
          "type": "uint32"
        },
        {
          "indexed": false,
          "internalType": "uint256",
          "name": "timestamp",
          "type": "uint256"
        }
      ],
      "name": "PrivateActivityRecorded",
      "type": "event"
    },
    {
      "inputs": [
        {
          "internalType": "string",
          "name": "name",
          "type": "string"
        },
        {
          "internalType": "uint32",
          "name": "requiredScore",
          "type": "uint32"
        },
        {
          "internalType": "uint64",
          "name": "benefits",
          "type": "uint64"
        }
      ],
      "name": "createMembershipLevel",
      "outputs": [],
      "stateMutability": "nonpayable",
      "type": "function"
    },
    {
      "inputs": [
        {
          "internalType": "uint32",
          "name": "memberId",
          "type": "uint32"
        }
      ],
      "name": "deactivateMember",
      "outputs": [],
      "stateMutability": "nonpayable",
      "type": "function"
    },
    {
      "inputs": [],
      "name": "generateAnonymousToken",
      "outputs": [
        {
          "internalType": "bytes32",
          "name": "",
          "type": "bytes32"
        }
      ],
      "stateMutability": "view",
      "type": "function"
    },
    {
      "inputs": [
        {
          "internalType": "uint32",
          "name": "memberId",
          "type": "uint32"
        }
      ],
      "name": "getMemberInfo",
      "outputs": [
        {
          "internalType": "bool",
          "name": "isActive",
          "type": "bool"
        },
        {
          "internalType": "bool",
          "name": "isAnonymous",
          "type": "bool"
        },
        {
          "internalType": "address",
          "name": "wallet",
          "type": "address"
        },
        {
          "internalType": "uint256",
          "name": "publicJoinTime",
          "type": "uint256"
        },
        {
          "internalType": "uint256",
          "name": "activityCount",
          "type": "uint256"
        }
      ],
      "stateMutability": "view",
      "type": "function"
    },
    {
      "inputs": [
        {
          "internalType": "uint32",
          "name": "levelId",
          "type": "uint32"
        }
      ],
      "name": "getMembershipLevelInfo",
      "outputs": [
        {
          "internalType": "string",
          "name": "name",
          "type": "string"
        },
        {
          "internalType": "bool",
          "name": "isActive",
          "type": "bool"
        }
      ],
      "stateMutability": "view",
      "type": "function"
    },
    {
      "inputs": [],
      "name": "getMyMemberId",
      "outputs": [
        {
          "internalType": "uint32",
          "name": "",
          "type": "uint32"
        }
      ],
      "stateMutability": "view",
      "type": "function"
    },
    {
      "inputs": [],
      "name": "getSystemStats",
      "outputs": [
        {
          "internalType": "uint32",
          "name": "totalMembersCount",
          "type": "uint32"
        },
        {
          "internalType": "uint32",
          "name": "totalLevels",
          "type": "uint32"
        },
        {
          "internalType": "uint32",
          "name": "nextMemberId",
          "type": "uint32"
        }
      ],
      "stateMutability": "view",
      "type": "function"
    },
    {
      "inputs": [
        {
          "internalType": "address",
          "name": "wallet",
          "type": "address"
        }
      ],
      "name": "isMember",
      "outputs": [
        {
          "internalType": "bool",
          "name": "",
          "type": "bool"
        }
      ],
      "stateMutability": "view",
      "type": "function"
    },
    {
      "inputs": [],
      "name": "levelCounter",
      "outputs": [
        {
          "internalType": "uint32",
          "name": "",
          "type": "uint32"
        }
      ],
      "stateMutability": "view",
      "type": "function"
    },
    {
      "inputs": [
        {
          "internalType": "uint32",
          "name": "",
          "type": "uint32"
        },
        {
          "internalType": "uint256",
          "name": "",
          "type": "uint256"
        }
      ],
      "name": "memberActivities",
      "outputs": [
        {
          "internalType": "euint32",
          "name": "encryptedMemberId",
          "type": "bytes32"
        },
        {
          "internalType": "euint64",
          "name": "encryptedActivityScore",
          "type": "bytes32"
        },
        {
          "internalType": "euint64",
          "name": "encryptedTimestamp",
          "type": "bytes32"
        },
        {
          "internalType": "bool",
          "name": "isProcessed",
          "type": "bool"
        }
      ],
      "stateMutability": "view",
      "type": "function"
    },
    {
      "inputs": [
        {
          "internalType": "uint32",
          "name": "",
          "type": "uint32"
        }
      ],
      "name": "members",
      "outputs": [
        {
          "internalType": "euint32",
          "name": "encryptedMemberId",
          "type": "bytes32"
        },
        {
          "internalType": "euint64",
          "name": "encryptedJoinTimestamp",
          "type": "bytes32"
        },
        {
          "internalType": "euint32",
          "name": "encryptedMembershipLevel",
          "type": "bytes32"
        },
        {
          "internalType": "bool",
          "name": "isActive",
          "type": "bool"
        },
        {
          "internalType": "bool",
          "name": "isAnonymous",
          "type": "bool"
        },
        {
          "internalType": "address",
          "name": "wallet",
          "type": "address"
        },
        {
          "internalType": "uint256",
          "name": "publicJoinTime",
          "type": "uint256"
        }
      ],
      "stateMutability": "view",
      "type": "function"
    },
    {
      "inputs": [],
      "name": "membershipIdCounter",
      "outputs": [
        {
          "internalType": "uint32",
          "name": "",
          "type": "uint32"
        }
      ],
      "stateMutability": "view",
      "type": "function"
    },
    {
      "inputs": [
        {
          "internalType": "uint32",
          "name": "",
          "type": "uint32"
        }
      ],
      "name": "membershipLevels",
      "outputs": [
        {
          "internalType": "string",
          "name": "name",
          "type": "string"
        },
        {
          "internalType": "euint32",
          "name": "encryptedRequiredScore",
          "type": "bytes32"
        },
        {
          "internalType": "euint64",
          "name": "encryptedBenefits",
          "type": "bytes32"
        },
        {
          "internalType": "bool",
          "name": "isActive",
          "type": "bool"
        }
      ],
      "stateMutability": "view",
      "type": "function"
    },
    {
      "inputs": [],
      "name": "owner",
      "outputs": [
        {
          "internalType": "address",
          "name": "",
          "type": "address"
        }
      ],
      "stateMutability": "view",
      "type": "function"
    },
    {
      "inputs": [],
      "name": "pauseSystem",
      "outputs": [],
      "stateMutability": "nonpayable",
      "type": "function"
    },
    {
      "inputs": [],
      "name": "protocolId",
      "outputs": [
        {
          "internalType": "uint256",
          "name": "",
          "type": "uint256"
        }
      ],
      "stateMutability": "pure",
      "type": "function"
    },
    {
      "inputs": [
        {
          "internalType": "uint32",
          "name": "activityScore",
          "type": "uint32"
        }
      ],
      "name": "recordPrivateActivity",
      "outputs": [],
      "stateMutability": "nonpayable",
      "type": "function"
    },
    {
      "inputs": [
        {
          "internalType": "bytes32",
          "name": "anonymousToken",
          "type": "bytes32"
        }
      ],
      "name": "registerAnonymousMember",
      "outputs": [],
      "stateMutability": "nonpayable",
      "type": "function"
    },
    {
      "inputs": [],
      "name": "registerPublicMember",
      "outputs": [],
      "stateMutability": "nonpayable",
      "type": "function"
    },
    {
      "inputs": [],
      "name": "totalMembers",
      "outputs": [
        {
          "internalType": "uint32",
          "name": "",
          "type": "uint32"
        }
      ],
      "stateMutability": "view",
      "type": "function"
    },
    {
      "inputs": [],
      "name": "unpauseSystem",
      "outputs": [],
      "stateMutability": "nonpayable",
      "type": "function"
    },
    {
      "inputs": [
        {
          "internalType": "uint32",
          "name": "memberId",
          "type": "uint32"
        }
      ],
      "name": "updateMemberLevel",
      "outputs": [],
      "stateMutability": "nonpayable",
      "type": "function"
    },
    {
      "inputs": [
        {
          "internalType": "bytes32",
          "name": "",
          "type": "bytes32"
        }
      ],
      "name": "usedAnonymousTokens",
      "outputs": [
        {
          "internalType": "bool",
          "name": "",
          "type": "bool"
        }
      ],
      "stateMutability": "view",
      "type": "function"
    },
    {
      "inputs": [
        {
          "internalType": "address",
          "name": "",
          "type": "address"
        }
      ],
      "name": "walletToMemberId",
      "outputs": [
        {
          "internalType": "uint32",
          "name": "",
          "type": "uint32"
        }
      ],
      "stateMutability": "view",
      "type": "function"
    }
  ],
  "bytecode": "0x60808060405234620007c2576060816200001b60009362000aae565b8281528260208201528260408201520152600060206040516200003e8162000aae565b73687820221192c5b662b25367f70076a37bc79b6c80825273848b0066793bcc60346da1f49049357399b8d59583830181905273a02cda4ca3a71d7c46997716f4283aa851c288126040808501829052731364cbbf2cdf5032c47d8226a6f6fbd2afcdacac60609095018590527f9e7b61f58c47dc699ac88507c4f5bb9f121c03808c5676a8078fe583e464970080546001600160a01b031990811690951790556000805160206200219c83398151915280548516841790557f9e7b61f58c47dc699ac88507c4f5bb9f121c03808c5676a8078fe583e4649702805485169092179091557f9e7b61f58c47dc699ac88507c4f5bb9f121c03808c5676a8078fe583e4649703805490931690931790915583547fffffffff00000000ffffffff0000000000000000000000000000000000000000163363ffffffff60c01b191617600160c01b1784556006805463ffffffff191660011790559051639cd07acb60e01b81526064600480830191909152602482015292839160449183915af1908115620007d05760009162000a76575b506000805160206200219c83398151915254604051639cd07acb60e01b8152600160048201526005602482015290602090829060449082906000906001600160a01b03165af1908115620007d05760009162000a3e575b50604051620002338162000aae565b604051620002418162000aca565b600681526542726f6e7a6560d01b602082015281528260208201528160408201526001606082015260016000526003602052604060002090805180519060018060401b0382116200077d578354600181811c9116801562000a33575b60208210146200075c57601f8111620009ea575b50602090601f83116001146200096d576200032896938362000320969460039460609460009262000961575b50508160011b9160001990861b1c19161784555b60208101516001850155604081015160028501550151151560ff80198385015416911617910155309062000b0a565b309062000b0a565b6000602060018060a01b036000805160206200219c8339815191525416604460405180948193639cd07acb60e01b83526101f46004840152600460248401525af1908115620007d05760009162000929575b506000805160206200219c83398151915254604051639cd07acb60e01b8152600260048201526005602482015290602090829060449082906000906001600160a01b03165af1908115620007d057600091620008f1575b50604051620003e08162000aae565b604051620003ee8162000aca565b600681526529b4b63b32b960d11b6020820152815282602082015281604082015260016060820152600260005260036020526040600020815180519060018060401b0382116200077d578254600181811c91168015620008e6575b60208210146200075c57601f81116200089d575b50602090601f83116001146200082057620004cb96938362000320969460609460039460009262000814575b50508160011b9160001990851b1c19161781555b602084015160018201556040840151600282015501910151151560ff80198354169116179055309062000b0a565b6000602060018060a01b036000805160206200219c8339815191525416604460405180948193639cd07acb60e01b83526103e86004840152600460248401525af1908115620007d057600091620007dc575b506000805160206200219c83398151915254604051639cd07acb60e01b8152600560048201819052602482015290602090829060449082906000906001600160a01b03165af1908115620007d05760009162000793575b5060405191620005848362000aae565b604051620005928162000aca565b600481526311dbdb1960e21b6020820152835260208301928184526040810190838252606081019160018352600360005260036020526040600020915195865160018060401b0381116200077d578354600181811c9116801562000772575b60208210146200075c57601f81116200070f575b506020601f821160011462000695579181600394926200032098979694620006699b60009262000689575b50508160011b9160001990871b1c19161783555b516001830155516002820155019051151560ff80198354169116179055309062000b0a565b600463ffffffff196006541617600655604051611612908162000b8a8239f35b01519050388062000630565b601f198216988560005260206000209960005b818110620006f6575092620006699a620003209998979593600193836003999710620006dd575b505050811b01835562000644565b015160001983891b60f8161c19169055388080620006cf565b838301518c556001909b019a60209384019301620006a8565b846000526020600020601f830160051c8101916020841062000751575b601f0160051c01905b81811062000744575062000605565b6000815560010162000735565b90915081906200072c565b634e487b7160e01b600052602260045260246000fd5b90607f1690620005f1565b634e487b7160e01b600052604160045260246000fd5b90506020813d602011620007c7575b81620007b16020938362000ae6565b81010312620007c257513862000574565b600080fd5b3d9150620007a2565b6040513d6000823e3d90fd5b90506020813d6020116200080b575b81620007fa6020938362000ae6565b81010312620007c25751386200051d565b3d9150620007eb565b01519050388062000489565b908360005260206000209160005b601f198516811062000884575093600184606094600394620004cb9b98620003209a98601f198116106200086b575b505050811b0181556200049d565b015160001983871b60f8161c191690553880806200085d565b919260206001819286850151815501940192016200082e565b836000526020600020601f840160051c810160208510620008de575b601f830160051c82018110620008d15750506200045d565b60008155600101620008b9565b5080620008b9565b90607f169062000449565b90506020813d60201162000920575b816200090f6020938362000ae6565b81010312620007c2575138620003d1565b3d915062000900565b90506020813d60201162000958575b81620009476020938362000ae6565b81010312620007c25751386200037a565b3d915062000938565b015190503880620002dd565b908460005260206000209160005b601f1985168110620009d1575093600184600394606094620003289b98620003209a98601f19811610620009b8575b505050811b018455620002f1565b015160001983881b60f8161c19169055388080620009aa565b919260206001819286850151815501940192016200097b565b846000526020600020601f840160051c81016020851062000a2b575b601f830160051c8201811062000a1e575050620002b1565b6000815560010162000a06565b508062000a06565b90607f16906200029d565b90506020813d60201162000a6d575b8162000a5c6020938362000ae6565b81010312620007c257513862000224565b3d915062000a4d565b90506020813d60201162000aa5575b8162000a946020938362000ae6565b81010312620007c2575138620001cd565b3d915062000a85565b608081019081106001600160401b038211176200077d57604052565b604081019081106001600160401b038211176200077d57604052565b601f909101601f19168101906001600160401b038211908210176200077d57604052565b7f9e7b61f58c47dc699ac88507c4f5bb9f121c03808c5676a8078fe583e4649700546001600160a01b0392908316803b15620007c257600092836044926040519687958694635ca4b5b160e11b865260048601521660248401525af18015620007d05762000b755750565b6001600160401b0381116200077d5760405256fe608060405260048036101561001357600080fd5b60003560e01c9081630239adec14610ff35781633f43814e14610f795781634698c2d514610f375781634c761240146101275781635143e7dd14610c665781635f59bb4014610bdd5781635fd2dc6514610bb95781636718305a1461092c57816376e92559146109055781638da5cb5b146108dc5781638daae955146107be5781639296691814610749578163a230c524146106df578163b037ff201461067e578163b56c1557146104a6578163ba7bb8fb14610485578163c2d79e9714610455578163c4061cf914610426578163d1ce59a7146103c5578163d4d697dd1461036c578163d8ba3bd814610345578163d9814fc31461017157508063da1f12ab146101545763dc1d4fb71461012757600080fd5b3461014f57600036600319011261014f5761014d60018060a01b0360005416331461123e565b005b600080fd5b3461014f57600036600319011261014f5760206040516127118152f35b3461014f5760208060031936011261014f5761018b61106a565b336000526002825263ffffffff928360406000205416801515908161032a575b50156102ef5733600052600283526101d58460406000205416946101ce866113f6565b9316611495565b916101e967ffffffffffffffff4216611495565b916040516101f6816110b7565b8281528581018581526040820190858252606083019260008452896000528489526040600020805490680100000000000000008210156102da57906102409160018201815561120c565b9590956102c657506102b69460036102bd98956102ac957fe2682499af3f83fa29a0af9eb25579dbaa67453d7b8847da106fe1f20e8cf9de9c9b99956102a59551855551600185015551600284015551151591019060ff801983541691151516179055565b3090611560565b6102a53084611560565b3390611560565b604051428152a2005b600090634e487b7160e01b82525260246000fd5b604187634e487b7160e01b6000525260246000fd5b60405162461bcd60e51b815290810183905260146024820152732737ba1030b71030b1ba34bb329036b2b6b132b960611b6044820152606490fd5b90506000526001835260ff60036040600020015416856101ab565b3461014f57600036600319011261014f57602063ffffffff60005460c01c16604051908152f35b3461014f57600036600319011261014f5761039260018060a01b0360005416331461123e565b6020604051818101904282524460408201523360601b6060820152605481526103ba816110b7565b519020604051908152f35b3461014f57600036600319011261014f5760005463ffffffff6000198160065416019181831161041157606093508160405193818360a01c16855216602084015260c01c166040820152f35b601184634e487b7160e01b6000525260246000fd5b3461014f57602036600319011261014f57356000526005602052602060ff604060002054166040519015158152f35b3461014f57600036600319011261014f57336000526002602052602063ffffffff60406000205416604051908152f35b3461014f57602036600319011261014f5761014d6104a161106a565b6112e7565b3461014f57600036600319011261014f5733600052600260205261064e63ffffffff916104da8360406000205416156112a6565b60005460c081901c8416936102b69163ffffffff60c01b6104fa8761127b565b60c01b169063ffffffff60c01b1916176000556102b6610519866113f6565b61052c67ffffffffffffffff4216611495565b926105356114fd565b9560405190610543826110e9565b838252896020830187815260408401908a825260608501916001835260808601906000825260a087019233845260c088019542875260005260016020526040600020975188555160018801555160028701556105b26003870193511515849060ff801983541691151516179055565b5182549151610100600160b01b031990921690151560081b61ff00161760109190911b62010000600160b01b031617905551910155336000908152600260205260408120805463ffffffff19168a179055549063ffffffff60a01b9061061d9060a084901c1661127b565b60a01b169063ffffffff60a01b19161760005561063a3082611560565b6106443084611560565b6102b63086611560565b60405190600082527fc5955976975fef33a7024c66f9bc0a59855eea91cac322a3b853a2e568976ed460203393a3005b3461014f57602036600319011261014f5763ffffffff61069c61106a565b1660005260036020526106d360406000206106be60ff60038301541691611127565b906040519283926040845260408401906111cc565b90151560208301520390f35b3461014f57602036600319011261014f57356001600160a01b0381169081900361014f57600052600260205263ffffffff604060002054168015158061072d575b6020906040519015158152f35b506000526001602052602060ff60036040600020015416610720565b3461014f57604036600319011261014f5761076261106a565b9063ffffffff60243592166000526020526040600020805482101561014f5760809161078d9161120c565b5080549060018101549060ff6003600283015492015416916040519384526020840152604083015215156060820152f35b3461014f57602036600319011261014f576107d761106a565b6107ec60018060a01b0360005416331461123e565b63ffffffff8091169182600052600160205260ff600360406000200154161561089857826000526001602052600360406000200160ff198154169055600054918260a01c16908115610883575063ffffffff60a01b1990911660001990910160a01b63ffffffff60a01b161760009081557ffb92e519c1f434f4630b2ed6c36509d757f8793ebde7b8de1c31921966e0360a9080a2005b601190634e487b7160e01b6000525260246000fd5b60649060206040519162461bcd60e51b8352820152601760248201527f4d656d62657220616c726561647920696e6163746976650000000000000000006044820152fd5b3461014f57600036600319011261014f576000546040516001600160a01b039091168152602090f35b3461014f57600036600319011261014f57602063ffffffff60005460a01c16604051908152f35b3461014f576020908160031936011261014f57803590336000526002835263ffffffff916109618360406000205416156112a6565b806000526005845260ff60406000205416610b80578015610b4c5760005460c081901c8416939063ffffffff60c01b6109998661127b565b60c01b169063ffffffff60c01b1916176000556109b5846113f6565b6109c867ffffffffffffffff4216611495565b916109d16114fd565b936040516109de816110e9565b83815288810196858852886040830198888a528b606085019160019b8c845260808701918d83528d60a089019433865260c08a01976000895260005252604060002097518855518d8801555160028701556003860192511515610a4d90849060ff801983541691151516179055565b5182549151610100600160b01b031990921661ff0091151560081b919091161760109190911b62010000600160b01b031617905551910155336000908152600289526040808220805463ffffffff19168a17905591815260058952908120805460ff191687179055549063ffffffff60a01b90610acf9060a084901c1661127b565b60a01b169063ffffffff60a01b19161760005530610aed9082611560565b610af73083611560565b610b013084611560565b33610b0b91611560565b33610b1591611560565b33610b1f91611560565b60405190815233927fc5955976975fef33a7024c66f9bc0a59855eea91cac322a3b853a2e568976ed491a3005b60405162461bcd60e51b8152808301859052600d60248201526c24b73b30b634b2103a37b5b2b760991b6044820152606490fd5b60405162461bcd60e51b81528083018590526012602482015271151bdad95b88185b1c9958591e481d5cd95960721b6044820152606490fd5b3461014f57600036600319011261014f57602063ffffffff60065416604051908152f35b3461014f57602036600319011261014f5760e09063ffffffff610bfe61106a565b1660005260016020526040600020908154916001810154916002820154906003830154920154926040519485526020850152604084015260ff81161515606084015260ff8160081c161515608084015260018060a01b039060101c1660a083015260c0820152f35b3461014f57606036600319011261014f57803567ffffffffffffffff80821161014f573660238301121561014f5781830135818111610f225760405192610cb7601f8301601f191660200185611105565b818452366024838301011161014f5781600092602460209301838701378401015260243563ffffffff811680910361014f576044359082821680920361014f57610d18610d1e91610d1360018060a01b0360005416331461123e565b6113f6565b91611495565b91604051610d2b816110b7565b8481528260208201528360408201526001606082015263ffffffff6006541660005260036020526040600020918151968751918211610f0d5750610d6f835461107d565b601f8111610ec9575b506020601f8211600114610e505760606102a593836102a5979694600394610de29b9c600092610e45575b50508160011b9160001990861b1c19161784555b60208101516001850155604081015160028501550151151591019060ff801983541691151516179055565b63ffffffff610e34610e2c600654937f065d5a97cdcca672d6c510cdf5c0f9644ff25b2306667d1ea68d55fae1057d7c8486169283926040519182916020835260208301906111cc565b0390a261127b565b63ffffffff19909216911617600655005b015190508c80610da3565b8360005260206000209760005b601f1984168110610eb157506102a593600184610de29a9b6003956060956102a59b9a98601f19811610610e99575b505050811b018455610db7565b015160001983881b60f8161c191690558c8080610e8c565b828201518a5560019099019860209283019201610e5d565b836000526020600020601f830160051c810160208410610f06575b601f830160051c82018110610efa575050610d78565b60008155600101610ee4565b5080610ee4565b604190634e487b7160e01b6000525260246000fd5b604184634e487b7160e01b6000525260246000fd5b3461014f57602036600319011261014f57356001600160a01b0381169081900361014f576000526002602052602063ffffffff60406000205416604051908152f35b3461014f57602036600319011261014f5760a09063ffffffff610f9a61106a565b16600052600160205260406000209080600383015492015490602052604060002054906040519260ff81161515845260ff8160081c1615156020850152600180861b039060101c16604084015260608301526080820152f35b3461014f57602036600319011261014f5763ffffffff61101161106a565b166000526003602052611054604060002061102b81611127565b9060018101549060ff6003600283015492015416906040519485946080865260808601906111cc565b9260208501526040840152151560608301520390f35b6004359063ffffffff8216820361014f57565b90600182811c921680156110ad575b602083101461109757565b634e487b7160e01b600052602260045260246000fd5b91607f169161108c565b6080810190811067ffffffffffffffff8211176110d357604052565b634e487b7160e01b600052604160045260246000fd5b60e0810190811067ffffffffffffffff8211176110d357604052565b90601f8019910116810190811067ffffffffffffffff8211176110d357604052565b9060405191826000825461113a8161107d565b908184526020946001916001811690816000146111aa575060011461116b575b50505061116992500383611105565b565b600090815285812095935091905b818310611192575050611169935082010138808061115a565b85548884018501529485019487945091830191611179565b9250505061116994925060ff191682840152151560051b82010138808061115a565b919082519283825260005b8481106111f8575050826000602080949584010152601f8019910116010190565b6020818301810151848301820152016111d7565b80548210156112285760005260206000209060021b0190600090565b634e487b7160e01b600052603260045260246000fd5b1561124557565b60405162461bcd60e51b815260206004820152600e60248201526d139bdd08185d5d1a1bdc9a5e995960921b6044820152606490fd5b63ffffffff8091169081146112905760010190565b634e487b7160e01b600052601160045260246000fd5b156112ad57565b60405162461bcd60e51b8152602060048201526012602482015271105b1c9958591e481c9959da5cdd195c995960721b6044820152606490fd5b63ffffffff80911690600082815260209060018252604060ff6003828420015416156113bf57848252600483528082205480156113b7577f96957faac7b3e7b8f19501ab0d498fc73fe9adae71408e472dd74053d7c932c39461139f91600190600a8110156113ae575b601911156113a6575b1692611365846113f6565b9087815260018652816002858320015561137f3083611560565b878152600186528390206003015460101c6001600160a01b031690611560565b51908152a2565b50600361135a565b60029150611351565b505050505050565b5162461bcd60e51b81526004810183905260116024820152704d656d626572206e6f742061637469766560781b6044820152606490fd5b6020600091604460018060a01b037f9e7b61f58c47dc699ac88507c4f5bb9f121c03808c5676a8078fe583e46497015416916040519485938492639cd07acb60e01b84526004840152600460248401525af19081156114895760009161145a575090565b90506020813d602011611481575b8161147560209383611105565b8101031261014f575190565b3d9150611468565b6040513d6000823e3d90fd5b7f9e7b61f58c47dc699ac88507c4f5bb9f121c03808c5676a8078fe583e464970154604051639cd07acb60e01b8152600481019290925260056024830152602090829060449082906000906001600160a01b03165af19081156114895760009161145a575090565b6000602060018060a01b037f9e7b61f58c47dc699ac88507c4f5bb9f121c03808c5676a8078fe583e46497015416604460405180948193639cd07acb60e01b835260016004840152600460248401525af19081156114895760009161145a575090565b7f9e7b61f58c47dc699ac88507c4f5bb9f121c03808c5676a8078fe583e4649700546001600160a01b0392908316803b1561014f57600092836044926040519687958694635ca4b5b160e11b865260048601521660248401525af18015611489576115c85750565b67ffffffffffffffff81116110d35760405256fea2646970667358221220b6aac0b50e3db9eb59dd6befcfcba7ada51cf3bfd58252eaa93ea1842f85036a64736f6c634300081800339e7b61f58c47dc699ac88507c4f5bb9f121c03808c5676a8078fe583e4649701",
  "linkReferences": {},
  "deployedLinkReferences": {}
}